:020000040800F2
:10000000DC1200201D090008850900088509000888
:10001000850900088509000885090008000000001E
:10002000000000000000000000000000850900083A
:1000300085090008000000008509000885090008FE
:100040008509000885090008850900088509000858
:100050008509000885090008850900088509000848
:100060008509000885090008850900088509000838
:100070008509000885090008850900088509000828
:100080008509000885090008850900088509000818
:100090008509000885090008850900088509000808
:1000A00085090008850900088509000885090008F8
:1000B0004530000885090008850900088509000801
:1000C00085090008850900088509000885090008D8
:1000D000850900088509000885090008813A00089B
:1000E00085090008850900088509000885090008B8
:1000F00085090008850900088509000885090008A8
:100100008509000885090008850900088509000897
:100110008509000885090008850900088509000887
:100120008509000885090008850900088509000877
:100130008509000885090008850900088509000867
:100140008509000885090008850900088509000857
:100150008509000885090008850900088509000847
:100160008509000885090008850900088509000837
:100170008509000885090008850900088509000827
:10018000850900088509000880B58AB000AF78604D
:1001900039604FF000037B624FF000033B624FF089
:1001A0000003FB614FF00003BB617B681B8A9BB2BD
:1001B0007B627B6A23F440537B623B68DB887A6A0C
:1001C00013437B627B6A9AB27B681A827B689B8945
:1001D0009BB27B627B6A23F4B05323F00C037B62F7
:1001E0003B689A883B681B8913439AB23B685B89DA
:1001F00013439BB27A6A13437B627B6A9AB27B6831
:100200009A817B689B8A9BB27B627B6A23F44073F2
:100210007B623B689B897A6A13437B627B6A9AB2F2
:100220007B689A8207F10803184603F053FC7A684A
:100230004FF48053C4F201039A4206D07A684FF417
:10024000A053C4F201039A4202D17B693B6201E0F0
:100250003B693B627B689B899BB29BB21BB2002BC4
:100260000FDA3A6A13464FEA83039B184FEA830278
:100270009A183B681B684FEA4303B2FBF3F3FB6138
:100280000EE03A6A13464FEA83039B184FEA830253
:100290009A183B681B684FEA8303B2FBF3F3FB61D8
:1002A000FA6948F21F53C5F2EB13A3FB02134FEA9E
:1002B00053134FEA03137B627B6A4FEA13134FF029
:1002C000640202FB03F3FA69D31ABB617B689B8962
:1002D0009BB29BB21BB2002B12DABB694FEAC3037D
:1002E00003F1320248F21F53C5F2EB13A3FB0213D2
:1002F0004FEA531303F007037A6A13437B6211E05A
:10030000BB694FEA031303F1320248F21F53C5F2EF
:10031000EB13A3FB02134FEA531303F00F037A6AA4
:1003200013437B627B6A9AB27B681A8107F12807C4
:10033000BD4680BD80B483B000AF78600B46FB70D3
:10034000FB78002B08D07B689B899BB243F4005359
:100350009AB27B689A8107E07B689B899BB223F401
:1003600000539AB27B689A8107F10C07BD4680BCA6
:10037000704700BF80B483B000AF78600B467B80CD
:100380007B884FEAC3534FEAD3539AB27B689A8073
:1003900007F10C07BD4680BC704700BF80B487B032
:1003A00000AF786013460A467A807B704FF00003F6
:1003B0003B614FF00003FB604FF00003BB604FF068
:1003C00000037B617B687B617B88DBB24FEA531360
:1003D000DBB23B617B8803F01F03FB60FB684FF0DF
:1003E000010202FA03F3BB603B69012B04D17B6974
:1003F00003F10C037B610BE03B69022B04D17B69A9
:1004000003F110037B6103E07B6903F114037B615B
:100410007B78002B06D07B697A691168BA680A4339
:100420001A6007E07B697A691168BA686FEA0202AC
:100430000A401A6007F11C07BD4680BC704700BF28
:1004400080B485B000AF78600B467B804FF000032E
:10045000FB737B681B889AB27B8813409BB2002B8E
:1004600003D04FF00103FB7302E04FF00003FB7376
:10047000FB7B184607F11407BD4680BC704700BFE0
:1004800080B487B000AF78600B467B804FF00003EC
:10049000FB604FF000037B614FF00003BB604FF047
:1004A0000003FB747B88DBB24FEA5313DBB2BB6003
:1004B0007B8803F01F037B617B694FF0010202FA26
:1004C00003F37B61BB68012B06D17B689B899BB2E0
:1004D0007A6913407B610FE0BB68022B06D17B6811
:1004E0001B8A9BB27A6913407B6105E07B689B8A1B
:1004F0009BB27A6913407B617B884FEA13239BB2DE
:10050000FB60FB684FF0010202FA03F3FB607B68BB
:100510001B889BB2FA681340FB607B69002B06D0F6
:10052000FB68002B03D04FF00103FB7402E04FF097
:100530000003FB74FB7C184607F11C07BD4680BC1A
:10054000704700BF80B485B000AF78600B467B80F9
:100550004FF00003FB814FF00003BB817B884FEA23
:100560001323FB81FB894FF0010202FA03F3BB81E5
:10057000BB896FEA03039AB27B681A8007F11407FC
:10058000BD4680BC704700BF80B584B000AF7860C6
:100590004FF001004FF0010103F084FB4FF0020027
:1005A0004FF0010103F07EFB4FF004004FF001011A
:1005B00003F078FB4FF00103BB604FF001033B7386
:1005C0004FF00003BB734FF003037B734FF0000346
:1005D000FB7307F108034FF00000C4F20200194654
:1005E00004F07EFA4FF00000C4F202004FF0010167
:1005F00004F05AFB4FF48073BB604FF000033B7371
:100600004FF00003BB734FF003037B734FF0000305
:10061000FB7307F108034FF00000C4F20200194613
:1006200004F05EFA4FF40043BB604FF001033B73EC
:100630004FF00003BB734FF003037B734FF00003D5
:10064000FB7307F108034FF48060C4F202001946FF
:1006500004F046FA4FF48060C4F202004FF4004107
:1006600004F022FB4FF44043BB604FF001033B73A7
:100670004FF00003BB734FF003037B734FF0000395
:10068000FB7307F108034FF40060C4F2020019463F
:1006900004F026FA4FF40060C4F202004FF4404127
:1006A00004F002FB07F11007BD4680BD80B582B0A3
:1006B00000AF786039607B681A683B686FEA0303B3
:1006C00003F00F031A407B681A603B6803F00103D4
:1006D000DBB2002B07D04FF00000C4F202004FF055
:1006E000010104F0E1FA3B6803F00203002B07D09C
:1006F0004FF48060C4F202004FF4004104F0D4FAD9
:100700003B6803F00403002B07D04FF40060C4F2F1
:1007100002004FF4804104F0C7FA3B6803F008037D
:10072000002B07D04FF40060C4F202004FF40041E8
:1007300004F0BAFA07F10807BD4680BD80B582B063
:1007400000AF786039607B681A683B681A437B6841
:100750001A603B6803F00103DBB2002B07D04FF0B7
:100760000000C4F202004FF0010104F08FFA3B6870
:1007700003F00203002B07D04FF48060C4F20200A4
:100780004FF4004104F082FA3B6803F00403002BAD
:1007900007D04FF40060C4F202004FF4804104F02F
:1007A00075FA3B6803F00803002B07D04FF4006094
:1007B000C4F202004FF4004104F068FA07F10807A0
:1007C000BD4680BD80B582B000AF786039603B68BF
:1007D00003F00103DBB2002B23D07B681B6803F01E
:1007E0000103DBB2002B0ED04FF00000C4F2020078
:1007F0004FF0010104F058FA7B681B6803F00E0209
:100800007B681A600DE04FF00000C4F202004FF068
:10081000010104F03BFA7B681B6843F001027B682E
:100820001A603B6803F00203002B22D07B681B6830
:1008300003F00203002B0ED04FF48060C4F20200DC
:100840004FF4004104F030FA7B681B6803F00D029E
:100850007B681A600DE04FF48060C4F202004FF430
:10086000004104F013FA7B681B6843F002027B68C6
:100870001A603B6803F00403002B22D07B681B68DE
:1008800003F00403002B0ED04FF40060C4F202000A
:100890004FF4804104F008FA7B681B6803F00B02F8
:1008A0007B681A600DE04FF40060C4F202004FF460
:1008B000804104F0EBF97B681B6843F004027B681D
:1008C0001A603B6803F00803002B22D07B681B688A
:1008D00003F00803002B0ED04FF40060C4F20200B6
:1008E0004FF4004104F0E0F97B681B6803F0070255
:1008F0007B681A600DE04FF40060C4F202004FF410
:10090000004104F0C3F97B681B6843F008027B6870
:100910001A6007F10807BD4680BD00BF80B582B0F0
:1009200000AF49F25C73C0F600037B6040F2000345
:10093000C2F200033B600BE07B681A683B681A60F8
:100940003B6803F104033B607B6803F104037B60B5
:100950003A6840F25443C2F200039A42ECD307488B
:1009600007494FF000028842B8BF40F8042BFADB79
:1009700001F0C0FE07F10807BD4680BD5404002009
:10098000DC0A002080B400AFFEE700BF80B485B071
:1009900000AFF860B9607A60FB68BA681A60FB68FB
:1009A0007A685A61FB68084A5A60FB68074A9A608D
:1009B000FB68064ADA60FB68044A1A6107F114070B
:1009C000BD4680BC704700BF0000803F00000000B3
:1009D000F0B5ADB004AFF860B9607A603B60D7F8AD
:1009E000C400134908F010FE0346002B22D0D7F8AC
:1009F000C8000F4908F008FE0346002B1AD0D7F8AC
:100A0000CC000B4908F000FE0346002B12D0D7F8AB
:100A1000B8300093D7F8BC300193D7F8C0300293B8
:100A2000F868B9687A683B6801F052F901F045B995
:100A300000000000FB689B6883F000431846B9681B
:100A400008F04EFC03461C46FB68DB6818467968D4
:100A500008F046FC03462046194608F037FB0346DB
:100A60001C46FB681B691846396808F039FC0346C8
:100A70002046194608F02AFB03461846DFF83C1AC0
:100A800008F02EFC0346C7F89C30FB685B681846EC
:100A9000B96808F025FC03461C46FB68DB6818466D
:100AA000396808F01DFC03462046194608F010FB83
:100AB00003461C46FB681B691846796808F010FC61
:100AC00003462046194608F001FB03461846DFF8A6
:100AD000EC1908F005FC0346C7F89830FB685B6822
:100AE0001846796808F0FCFB03461C46FB689B68C7
:100AF0001846396808F0F4FB03462046194608F00A
:100B0000E5FA03461C46FB681B691846B96808F0FD
:100B1000E7FB03462046194608F0DAFA0346184672
:100B2000DFF8981908F0DCFB0346C7F89430FB683F
:100B30005B681846396808F0D3FB03461C46FB681F
:100B40009B681846796808F0CBFB03462046194697
:100B500008F0BEFA03461C46FB68DB681846B96815
:100B600008F0BEFB03462046194608F0AFFA0346DC
:100B70001846DFF8481908F0B3FB0346C7F8903071
:100B80004FF001031C46D7F8B800DFF8341908F01D
:100B90003BFD0346002B02D14FF000031C46E3B29D
:100BA00083F00103DBB2002B2AD14FF001031C4676
:100BB000D7F8BC00DFF8081908F026FD0346002B23
:100BC00002D14FF000031C46E3B283F00103DBB215
:100BD000002B15D14FF001031C46D7F8C000DFF8F9
:100BE000E01808F011FD0346002B02D14FF000037E
:100BF0001C46E3B283F00103DBB2002B00F09987BF
:100C0000D7F8B800D7F8B81008F06AFB03461C46BE
:100C1000D7F8BC00D7F8BC1008F062FB03462046AA
:100C2000194608F055FA03461C46D7F8C000D7F815
:100C3000C01008F055FB03462046194608F048FA54
:100C40000346184601F022FC0346C7F88C30D7F85B
:100C5000B800D7F88C1008F043FB0346C7F8B8304B
:100C6000D7F8BC00D7F88C1008F03AFB0346C7F859
:100C7000BC30D7F8C000D7F88C1008F031FB034621
:100C8000C7F8C030D7F8C400D7F8C41008F028FB64
:100C900003461C46D7F8C800D7F8C81008F020FB58
:100CA00003462046194608F013FA03461C46D7F8B7
:100CB000CC00D7F8CC1008F013FB034620461946A9
:100CC00008F006FA0346184601F0E0FB0346C7F8B1
:100CD0008C30D7F8C400D7F88C1008F001FB03461D
:100CE000C7F8C430D7F8C800D7F88C1008F0F8FA65
:100CF0000346C7F8C830D7F8CC00D7F88C1008F0F6
:100D0000EFFA0346C7F8CC30FB685B681846194613
:100D100008F0DEF903461846D7F8C41008F0E0FAE8
:100D20000346C7F88830FB685B681846194608F028
:100D3000CFF903461846D7F8C81008F0D1FA034691
:100D4000C7F88430FB685B681846194608F0C0F99C
:100D500003461846D7F8CC1008F0C2FA0346C7F885
:100D60008030FB689B681846194608F0B1F90346C5
:100D70001846D7F8C41008F0B3FA0346FB67FB68BF
:100D80005B681846194608F0A3F90346BB67FB6881
:100D90009B681846194608F09BF903467B67FB6879
:100DA000DB681846194608F093F903463B67FB6871
:100DB0001B691846194608F08BF90346FB66FB6869
:100DC0005B681846194608F083F903461A46FB6823
:100DD000DB681046194608F083FA0346BB66FB68D9
:100DE000DB681846194608F073F903461A46FB6893
:100DF0001B691046194608F073FA03467B66FB68C8
:100E00005A68FB685B681046194608F069FA0346A1
:100E10003B66FB685A68FB689B681046194608F0F9
:100E20005FFA0346FB65FB685A68FB68DB6810469F
:100E3000194608F055FA0346BB65FB685A68FB681B
:100E40001B691046194608F04BFA03467B65FB68A0
:100E50009A68FB689B681046194608F041FA0346F9
:100E60003B65FB689A68FB68DB681046194608F02A
:100E700037FA0346FB64FB689A68FB681B691046F7
:100E8000194608F02DFA0346BB64FB68DA68FB6874
:100E9000DB681046194608F023FA03467B64FB68BA
:100EA000DA68FB681B691046194608F019FA034610
:100EB0003B64FB681A69FB681B691046194608F019
:100EC0000FFA0346FB63D7F8C400396E08F008FA3E
:100ED00003461C46FB681B691846D7F8841008F0C7
:100EE000FFF903462046194608F0F0F803461C4671
:100EF000FB68DB681846D7F8801008F0F1F9034664
:100F00002046194608F0E4F803461C46D7F8C4000A
:100F1000396D08F0E5F903462046194608F0D8F87F
:100F200003461C46786FD7F8C81008F0D9F9034675
:100F30001A46FB68DB681046194608F0D1F90346EB
:100F40002046194608F0C4F803461C46786FD7F8C7
:100F5000CC1008F0C5F903461A46FB681B69104619
:100F6000194608F0BDF903462046194608F0B0F8C6
:100F700003461C46D7F8C400796C08F0B1F9034663
:100F80002046194608F0A2F803461C46D7F8C400CC
:100F9000F96B08F0A5F903462046194608F096F8C3
:100FA0000346BB63FB681B691846D7F8881008F036
:100FB00097F903461C46D7F8C800396E08F090F937
:100FC00003462046194608F083F803461C46FB6892
:100FD0009B681846D7F8801008F082F9034620462F
:100FE000194608F073F803461C46FB68DB68184690
:100FF000F96F08F075F903462046194608F068F8BD
:1010000003461C46D7F8C800396D08F069F9034655
:101010002046194608F05AF803461C46D7F8C8007F
:10102000796C08F05DF903462046194608F050F83F
:1010300003461C46386FD7F8CC1008F051F9034628
:101040001A46FB681B691046194608F049F9034621
:101050002046194608F03CF803461C46D7F8C8005D
:10106000F96B08F03DF903462046194608F02EF8C2
:1010700003467B63B86BB96B08F032F903461C4634
:10108000786B796B08F02CF903462046194608F076
:101090001FF80346184607F0D7FC02460B461046D9
:1010A000194606F0FFFC02460B461046194607F0AB
:1010B000B9FF03463B63D7F8883083F00042FB68F2
:1010C000DB681046194608F00BF903461C46FB681E
:1010D0009B681846D7F8841008F002F903462046AA
:1010E000194607F0F5FF03461C46D7F8CC00396EC9
:1010F00008F0F6F803462046194607F0E9FF0346D4
:101100001C46FB681B691846F96F08F0E9F80346AE
:101110002046194607F0DCFF03461C46D7F8CC00F2
:10112000396D08F0DDF803462046194607F0CEFF7A
:1011300003461C46386FD7F8C81008F0D1F80346AC
:101140001A46FB681B691046194608F0C9F80346A1
:101150002046194607F0BCFF03461C46D7F8CC00D2
:10116000796C08F0BDF803462046194607F0AEFF3B
:1011700003461C46D7F8CC00F96B08F0B1F80346DB
:101180002046194607F0A4FF0346FB623B6B184656
:10119000194607F09DFF0346BB62FB6A18461946D5
:1011A00007F096FF03467B623B6F83F00044BB6C05
:1011B0001846194607F08CFF03461846B96E07F02B
:1011C00085FF03461846D7F8B81007F07FFF03469F
:1011D0002046194608F084F803461C46FB6D184665
:1011E000194607F075FF03461846796E07F070FF41
:1011F00003461846D7F8BC1007F068FF03461846A8
:10120000796F08F06DF803462046194607F060FF35
:1012100003461C46FB68DB681846F96A08F060F86C
:1012200003461D46A548796C07F050FF0346184653
:10123000F96B07F04BFF03461846396B08F050F87E
:1012400003461E46B86CB96D07F040FF03461846CA
:10125000F96A08F045F803463046194607F038FFAA
:1012600003461846D7F8C41007F030FF0346284657
:10127000194608F035F803462046194607F026FFC0
:1012800003461C463B6B83F00042FB681B6910461B
:10129000194608F025F803461D46FB689B6818466A
:1012A000F96A08F01DF803462846194607F010FFB2
:1012B00003461D46F86C796D07F008FF0346184693
:1012C000396B08F00DF803461E46F86D396C07F0CF
:1012D000FFFE03461846F96A08F002F80346304656
:1012E000194607F0F5FE03461846D7F8C81007F070
:1012F000EDFE03462846194607F0F2FF0346204656
:10130000194607F0E5FE03461C46FB68DB681846F5
:10131000396B07F0E5FF03461D46B86DB96C07F061
:10132000D7FE03461846396B07F0DAFF03461E4620
:101330006248396D07F0CAFE03461846796C07F01B
:10134000C5FE03461846F96A07F0CAFF0346304651
:10135000194607F0BDFE03461846D7F8CC1007F033
:10136000B5FE03462846194607F0BAFF0346204655
:10137000194607F0ADFE03463B62BB6C18461946A2
:1013800007F0A6FE03461846B96E07F09FFE034617
:101390001846D7F8B81007F099FE03461846F96EBC
:1013A00007F09EFF03461C46FB6D1846194607F0E2
:1013B0008FFE03461846796E07F08AFE03461846EC
:1013C000D7F8BC1007F082FE03461846B96F07F045
:1013D00087FF03462046194607F07AFE03461C465F
:1013E000FB689B681846374907F07AFF03461D469D
:1013F0003B6D1846194607F06BFE03463248194606
:1014000007F064FE03461E467B6C1846194607F03B
:101410005FFE03463046194607F058FE034618465D
:10142000D7F8C01007F052FE03462846194607F0C9
:1014300057FF03462046194607F048FE03461C4660
:10144000FB681B691846F96A07F04AFF03461D4608
:101450001A48796C07F03AFE03461846F96B07F014
:1014600035FE03461846396B07F03AFF03461E4621
:10147000B86CB96D07F02AFE03461846F96A07F002
:101480002FFF03463046194607F022FE0346184652
:10149000D7F8C41007F01AFE03462846194607F08D
:1014A0001FFF03462046194607F012FE03461C465E
:1014B000FB68DB681846396B08E000BF0000003F9E
:1014C00000000000000080400000803F07F008FF9F
:1014D00003461D46FB685B681846F96A07F000FF83
:1014E00003462846194607F0F3FD03461D46F86CEF
:1014F000796D07F0EBFD03461846396B07F0F0FEF7
:1015000003461E46F86D396C07F0E2FD03461846A7
:10151000F96A07F0E5FE03463046194607F0D8FDA4
:1015200003461846D7F8C81007F0D0FD03462846F2
:10153000194607F0D5FE03462046194607F0C8FDB8
:1015400003461C46FB681B691846396B07F0C8FE4A
:1015500003461D46FB689B681846796A07F0C0FE83
:1015600003462846194607F0B1FD03461D46B86DEF
:10157000B96C07F0ADFD03461846396B07F0B0FEB5
:1015800003461E46DFF83C07396D07F09FFD034612
:101590001846796C07F09AFD03461846F96A07F079
:1015A0009FFE03463046194607F092FD0346184653
:1015B000D7F8CC1007F08AFD03462846194607F0F5
:1015C0008FFE03462046194607F082FD0346FB6165
:1015D000BB6F83F00044BB6C1846194607F078FDDA
:1015E00003461846B96E07F071FD03461846D7F852
:1015F000B81007F06BFD03462046194607F070FE51
:1016000003461C46FB6D1846194607F061FD03466C
:101610001846796E07F05CFD03461846D7F8BC10F3
:1016200007F054FD03461846F96E07F059FE0346CD
:101630002046194607F04CFD03461C46FB68DB6854
:101640001846DFF8841607F04BFE03461D463B6D37
:101650001846194607F03CFD0346DFF870061946A8
:1016600007F034FD03461E467B6C1846194607F00A
:101670002FFD03463046194607F028FD034618465D
:10168000D7F8C01007F022FD03462846194607F098
:1016900027FE03462046194607F018FD03461C4660
:1016A000BB6A83F00042FB68DB681046194607F00E
:1016B00017FE03461D46FB685B681846F96A07F08B
:1016C0000FFE03462846194607F000FD03461D4657
:1016D000DFF8F005796C07F0F9FC03461846F96B62
:1016E00007F0F4FC03461846396B07F0F9FD034692
:1016F0001E46B86CB96D07F0E9FC03461846F96A56
:1017000007F0EEFD03463046194607F0E1FC0346BC
:101710001846D7F8C41007F0D9FC034628461946E6
:1017200007F0DEFD03462046194607F0D1FC0346CC
:101730001C46FB689B681846396B07F0D1FD0346D1
:101740001D46FB681B691846F96A07F0C9FD034688
:101750002846194607F0BCFC03461D46F86C796D17
:1017600007F0B4FC03461846396B07F0B9FD034691
:101770001E46F86D396C07F0ABFC03461846F96A53
:1017800007F0AEFD03463046194607F0A1FC0346BC
:101790001846D7F8C81007F099FC034628461946A2
:1017A00007F09EFD03462046194607F091FC0346CC
:1017B0001C46FB685B681846396B07F091FD0346D1
:1017C0001D46FB68DB681846796A07F089FD034609
:1017D0002846194607F07AFC03461D46B86DB96CD9
:1017E00007F076FC03461846396B07F079FD03468F
:1017F0001E46DFF8D004396D07F068FC0346184632
:10180000796C07F063FC03461846F96A07F068FD37
:1018100003463046194607F05BFC03461846D7F8E6
:10182000CC1007F053FC03462846194607F058FD34
:1018300003462046194607F04BFC0346BB61BB6CD0
:101840001846194607F044FC03461846B96E07F0DF
:101850003DFC03461846D7F8B81007F037FC03469E
:101860001846796F07F03CFD03461C46FB6D184691
:10187000194607F02DFC03461846796E07F028FC40
:1018800003461846D7F8BC1007F020FC034618465C
:10189000396F07F025FD03462046194607F018FC6E
:1018A00003461C46BB6A83F00042FB681B69104676
:1018B000194607F015FD03461D46FB689B68184650
:1018C000F96A07F00DFD03462846194607F000FCAB
:1018D00003461D46FB48796C07F0F8FB03461846A3
:1018E000F96B07F0F3FB03461846396B07F0F8FC79
:1018F00003461E46B86CB96D07F0E8FB0346184670
:10190000F96A07F0EDFC03463046194607F0E0FBA4
:1019100003461846D7F8C41007F0D8FB03462846FC
:10192000194607F0DDFC03462046194607F0D0FBB8
:1019300003461C463B6B83F00042FB685B68104625
:10194000194607F0CDFC03461D46FB68DB681846C8
:10195000F96A07F0C5FC03462846194607F0B8FBAC
:1019600003461D46F86C796D07F0B0FB0346184638
:10197000396B07F0B5FC03461E46F86D396C07F06D
:10198000A7FB03461846F96A07F0AAFC034630464F
:10199000194607F09DFB03461846D7F8C81007F014
:1019A00095FB03462846194607F09AFC0346204655
:1019B000194607F08DFB03461C46FB689B681846DA
:1019C000396B07F08DFC03461D46B86DB96C07F006
:1019D0007FFB03461846396B07F082FC03461E4620
:1019E000B848396D07F072FB03461846796C07F06A
:1019F0006DFB03461846F96A07F072FC0346304651
:101A0000194607F065FB03461846D7F8CC1007F0D7
:101A10005DFB03462846194607F062FC0346204654
:101A2000194607F055FB03467B61386A396A07F0AF
:101A300057FC03461C46F869F96907F051FC034658
:101A40002046194607F044FB03461C46B869B969AD
:101A500007F046FC03462046194607F039FB0346CB
:101A60001C467869796907F03BFC03462046194615
:101A700007F02EFB0346184600F008FD0346C7F8A2
:101A80008C30386AD7F88C1007F02AFC03463B628A
:101A9000F869D7F88C1007F023FC0346FB61B8699E
:101AA000D7F88C1007F01CFC0346BB617869D7F8A7
:101AB0008C1007F015FC03467B61FB681B68184619
:101AC000396A07F00DFC0346D7F89C00194607F069
:101AD000FDFA0346C7F89C30FB681B681846F96995
:101AE00007F0FEFB0346D7F89800194607F0EEFA18
:101AF0000346C7F89830FB681B681846B96907F0B9
:101B0000EFFB0346D7F89400194607F0DFFA0346C7
:101B1000C7F89430FB681B681846796907F0E0FB4A
:101B20000346D7F89000194607F0D0FA0346C7F8E5
:101B30009030FB685C68FB685B696448194607F095
:101B400083FC03461846D7F89C1007F0C9FB0346F0
:101B50002046194607F0BCFA03461A46FB685A604D
:101B6000FB689C68FB685B695848194607F06CFC89
:101B700003461846D7F8981007F0B2FB03462046F4
:101B8000194607F0A5FA03461A46FB689A60FB68F7
:101B9000DC68FB685B694D48194607F055FC034655
:101BA0001846D7F8941007F09BFB034620461946C9
:101BB00007F08EFA03461A46FB68DA60FB681C6978
:101BC000FB685B694148194607F03EFC034618462E
:101BD000D7F8901007F084FB03462046194607F01B
:101BE00077FA03461A46FB681A61FB685A68FB6875
:101BF0005B681046194607F073FB03461C46FB68FA
:101C00009A68FB689B681046194607F069FB034613
:101C10002046194607F05CFA03461C46FB68DA6862
:101C2000FB68DB681046194607F05AFB034620465E
:101C3000194607F04DFA03461C46FB681A69FB6813
:101C40001B691046194607F04BFB03462046194610
:101C500007F03EFA0346184600F018FC0346C7F8A2
:101C60008C30FB685B681846D7F88C1007F038FB9F
:101C700003461A46FB685A60FB689B681846D7F80B
:101C80008C1007F02DFB03461A46FB689A60FB6830
:101C9000DB681846D7F88C1007F022FB03461A467B
:101CA000FB68DA60FB681B691846D7F88C1007F0F0
:101CB00017FB03461A46FB681A6107F1A407BD46E5
:101CC000F0BD00BF0000003F000080400000803FEA
:101CD00090B59BB000AFF860B9607A603B60FB687C
:101CE0009B6883F000431846B96807F0F9FA034689
:101CF0001C46FB68DB681846796807F0F1FA034672
:101D00002046194607F0E2F903461C46FB681B69AA
:101D10001846396807F0E4FA03462046194607F0EA
:101D2000D5F903461846DFF8501707F0D9FA0346ED
:101D30007B66FB685B681846B96807F0D1FA034612
:101D40001C46FB68DB681846396807F0C9FA034689
:101D50002046194607F0BCF903461C46FB681B6980
:101D60001846796807F0BCFA03462046194607F082
:101D7000ADF903461846DFF8001707F0B1FA03463D
:101D80003B66FB685B681846796807F0A9FA03466A
:101D90001C46FB689B681846396807F0A1FA0346A1
:101DA0002046194607F092F903461C46FB681B695A
:101DB0001846B96807F094FA03462046194607F01A
:101DC00087F903461846DFF8B01607F089FA03468C
:101DD000FB65FB685B681846396807F081FA0346C3
:101DE0001C46FB689B681846796807F079FA034639
:101DF0002046194607F06CF903461C46FB68DB6871
:101E00001846B96807F06CFA03462046194607F0F1
:101E10005DF903461846DFF8601607F061FA0346DD
:101E2000BB654FF001031C46B86FDFF8501607F092
:101E3000EBFB0346002B02D14FF000031C46E3B23C
:101E400083F00103DBB2002B29D14FF001031C46C4
:101E5000F86FDFF8281607F0D7FB0346002B02D1F6
:101E60004FF000031C46E3B283F00103DBB2002B0A
:101E700015D14FF001031C46D7F88000DFF8FC15A0
:101E800007F0C2FB0346002B02D14FF000031C46B3
:101E9000E3B283F00103DBB2002B00F02D82B86FB8
:101EA000B96F07F01DFA03461C46F86FF96F07F08B
:101EB00017FA03462046194607F00AF903461C465E
:101EC000D7F88000D7F8801007F00AFA03462046BA
:101ED000194607F0FDF80346184600F0D7FA034606
:101EE0007B65B86F796D07F0FBF90346BB67F86F48
:101EF000796D07F0F5F90346FB67D7F88000796D37
:101F000007F0EEF90346C7F88030FB685B681846B7
:101F1000194607F0DDF803463B65FB689B681846E9
:101F2000194607F0D5F80346FB64FB68DB681846E2
:101F3000194607F0CDF80346BB64FB681B691846D9
:101F4000194607F0C5F803467B64FB685B681846D2
:101F5000DFF82C1507F0C4F903463B64FB689B6867
:101F60001846DFF81C1507F0BBF90346FB63FB6856
:101F7000DB681846DFF8081507F0B2F90346BB63C3
:101F8000FB689B681846DFF8FC1407F0A9F90346C4
:101F90007B63FB68DB681846DFF8E81407F0A0F9FC
:101FA00003463B63FB685A68FB685B68104619464A
:101FB00007F096F90346FB62FB689A68FB689B682A
:101FC0001046194607F08CF90346BB62FB68DA68D5
:101FD000FB68DB681046194607F082F903467B620E
:101FE000FB681A69FB681B691046194607F078F907
:101FF00003463B62386C796A07F072F903461C4667
:10200000B86CB96F07F06CF903462046194607F023
:102010005FF803461C46386CB96A07F061F903465D
:102020002046194607F054F803461C46F86CF96F31
:1020300007F056F903462046194607F047F80346CD
:10204000FB61F86B396A07F04BF903461C46786C64
:10205000B96F07F045F903462046194607F036F8F0
:1020600003461C46F86ADFF8181407F039F90346EE
:102070001A46FB689B681046194607F031F903467B
:102080002046194607F024F803461C46386DF96FC0
:1020900007F026F903462046194607F017F80346CD
:1020A0001846F96B07F012F803461C46786BB96ABC
:1020B00007F016F903462046194607F009F80346CB
:1020C0001C46786B796A07F00BF9034620461946DF
:1020D00006F0FEFF03461C46F86BD7F8801007F0A9
:1020E000FFF803462046194606F0F2FF0346BB619F
:1020F000F86AE34907F0F4F803461A46FB68DB6820
:102100001046194607F0ECF803461C46386DB96FC7
:1021100007F0E6F803462046194606F0D9FF0346C5
:102120001C46B86B396A07F0DBF8034620461946AF
:1021300006F0CEFF03461C46786CF96F07F0D0F826
:1021400003462046194606F0C1FF03461846B96B00
:1021500006F0BCFF03461C46386BB96A07F0C0F8AE
:1021600003462046194606F0B3FF03461C46386B6B
:10217000796A07F0B5F803462046194606F0A8FF2D
:1021800003461C46B86BD7F8801007F0A9F8034641
:102190002046194606F09CFF03467B61B86AB849A1
:1021A00007F09EF803461A46FB681B69104619465D
:1021B00007F096F803461C46F86CB96F07F090F8E4
:1021C00003462046194606F081FF03461C46786AFE
:1021D000AB4907F085F803461A46FB681B691046B1
:1021E000194607F07DF803462046194606F070FFB1
:1021F00003461C46B86CF96F07F072F80346204698
:10220000194606F063FF03463B61F869F96907F078
:1022100067F803461C46B869B96907F061F80346D8
:102220002046194606F054FF03461C467869796932
:1022300007F056F803462046194606F049FF0346C4
:102240001C463869396907F04BF8034620461946A1
:1022500006F03EFF0346184600F018F903467B657A
:10226000F869796D07F03CF80346FB61B869796D50
:1022700007F036F80346BB617869796D07F030F8EE
:1022800003467B613869796D07F02AF803463B61A4
:10229000FB681B681846F96907F022F80346786E58
:1022A000194606F013FF03467B66FB681B68184659
:1022B000B96907F015F80346386E194606F006FFAF
:1022C00003463B66FB681B681846796907F008F807
:1022D0000346F86D194606F0F9FE0346FB65FB68F8
:1022E0001B681846396906F0FBFF0346B86D1946AE
:1022F00006F0ECFE0346BB65FB685C68FB685B6947
:102300006148194607F0A0F803461846796E06F0B2
:10231000E7FF03462046194606F0DAFE03461A4652
:10232000FB685A60FB689C68FB685B695648194605
:1023300007F08AF803461846396E06F0D1FF0346C7
:102340002046194606F0C4FE03461A46FB689A600A
:10235000FB68DC68FB685B694B48194607F074F85A
:1023600003461846F96D06F0BBFF034620461946A2
:1023700006F0AEFE03461A46FB68DA60FB681C698D
:10238000FB685B694048194607F05EF8034618464B
:10239000B96D06F0A5FF03462046194606F098FEE3
:1023A00003461A46FB681A61FB685A68FB685B685B
:1023B0001046194606F094FF03461C46FB689A68CF
:1023C000FB689B681046194606F08AFF03462046C4
:1023D000194606F07DFE03461C46FB68DA68FB687A
:1023E000DB681046194606F07BFF03462046194677
:1023F00006F06EFE03461C46FB681A69FB681B6903
:102400001046194606F06CFF03462046194606F0B2
:102410005FFE0346184600F039F803467B65FB680B
:102420005B681846796D06F05BFF03461A46FB6849
:102430005A60FB689B681846796D06F051FF0346A9
:102440001A46FB689A60FB68DB681846796D06F0EF
:1024500047FF03461A46FB68DA60FB681B691846AB
:10246000796D06F03DFF03461A46FB681A6107F1D5
:102470006C07BD4690BD00BF0000003F000000009B
:1024800000008040000000410000803F80B586B021
:1024900000AF786078681C4906F022FF03467B6134
:1024A0007B683B6107F110031B68FB60FB684FEA28
:1024B000630245F6DF13C5F637739B1AFB6007F11D
:1024C0000C031B683B613B691846796906F008FFFD
:1024D00003461A463B691046194606F001FF0346BB
:1024E0000A48194606F0F2FD03461A463B691046B3
:1024F000194606F0F5FE03463B613B69184607F1B5
:102500001807BD4680BD00BF0000003F0000C03F6F
:10251000F0B583B000AF78607B685A687B689B68D1
:102520001046194606F0DCFE03461C467B68DA6856
:102530007B681B691046194606F0D2FE034620460A
:10254000194606F0C5FD03461846194606F0C0FDBB
:102550000346184606F078FA04460D467B689A68EA
:102560007B689B681046194606F0BAFE03461E4675
:102570007B68DA687B68DB681046194606F0B0FEB7
:1025800003463046194606F0A3FD03461846194691
:1025900006F09EFD03465048194606F097FD034697
:1025A000184606F051FA02460B462046294605F029
:1025B00077FA02460B461046194606F033FD0246EE
:1025C0007B681A627B685A687B68DB68104619462C
:1025D00006F086FE03461C467B689A687B681B698A
:1025E0001046194606F07CFE03462046194606F0C2
:1025F0006DFD03461846194606F06AFD0346184667
:1026000006F022FA02460B461046194605F0F8F984
:1026100002460B461046194606F004FD02467B684A
:10262000DA617B685A687B681B691046194606F0B8
:1026300057FE03461C467B689A687B68DB68104639
:10264000194606F04DFE03462046194606F040FDA9
:1026500003461846194606F03BFD0346184606F0A9
:10266000F3F904460D467B68DA687B68DB68104640
:10267000194606F035FE03461E467B681A697B68DC
:102680001B691046194606F02BFE034630461946D4
:1026900006F01EFD03461846194606F019FD0346CE
:1026A0000D48194606F012FD0346184606F0CCF90F
:1026B00002460B462046294605F0F2F902460B4633
:1026C0001046194606F0AEFC02467B689A6107F197
:1026D0000C07BD46F0BD00BF0000803F80B483B052
:1026E00000AF78607B68184607F10C07BD4680BCD8
:1026F000704700BF90B597B002AF02F00BFD40F6F7
:102700006020C2F200004FF0080101F0B5FD40F278
:10271000B460C2F2000004F059F840F2E040C2F2A6
:10272000000003F029FA03F0E9FC40F2C063C2F2B2
:10273000000346F69612C5F2AA521A6040F2C06330
:10274000C2F20003DFF8C4285A6040F2C063C2F24C
:102750000003DFF8BC289A6040F2C063C2F20003B5
:10276000DFF8B028DA6040F2C063C2F20003DFF89D
:10277000A8281A6140F2C063C2F20003DFF89C2867
:102780005A6140F2C063C2F20003DFF894289A61F4
:1027900040F2C063C2F20003DFF88828DA6140F239
:1027A000C063C2F20003DFF87C281A6240F2C06303
:1027B000C2F20003DFF870285A6240F2C063C2F22E
:1027C0000003DFF868289A6240F2C063C2F2000397
:1027D000DFF85C28DA6240F2C063C2F20003DFF87F
:1027E00054281A6340F2C063C2F20003DFF83428B1
:1027F0005A6340F2C063C2F20003DFF828289A63EC
:1028000040F2C063C2F20003DFF81828DA6340F236
:10281000C063C2F200036FF03B029A6640F2C063ED
:10282000C2F200034FF4C872DA6640F2C063C2F22B
:1028300000034FF6E062CFF6FF721A6740F2C06302
:10284000C2F200034FF4C8725A6740F2C063C2F28A
:1028500000034FF67062CFF6FF729A6740F2C063D2
:10286000C2F200034FF4C872DA6740F2C063C2F2EA
:1028700000034FF67062CFF6FF72C3F8802040F27B
:10288000C063C2F200034FF4C872C3F8842040F260
:10289000C063C2F200034FF67062CFF6FF72C3F856
:1028A000882001F00FFF0346FB63FA6B4FF41853C7
:1028B000C0F21F039A4234D140F2E850C2F2000045
:1028C0004FF000014FF0B40202F09AF840F2E853E2
:1028D000C2F200031A6846F69613C5F2AA539A424A
:1028E00015D002F0D7F840F2C060C2F200004FF0FD
:1028F00000014FF0B40202F031F840F2A063C2F2DE
:10290000000340F2C062C2F200021A6012E040F21C
:10291000A063C2F2000340F2E852C2F200021A6061
:1029200008E040F2A063C2F2000340F2C062C2F2CB
:1029300000021A6040F2A460C2F200004FF01001E1
:1029400001F07CFC40F2A063C2F200031B689B6EA6
:102950009AB240F2A463C2F20003DA8040F2A063AC
:10296000C2F200031B689B6E9AB240F2A463C2F2EB
:1029700000031A8140F2A063C2F200031B689B6E41
:102980009AB240F2A463C2F200035A8140F6B40046
:10299000C2F2000004F03AF940F2A063C2F2000370
:1029A0001B68D96840F2A063C2F200031B681A6971
:1029B00040F2A063C2F200031B685C6940F2A063AE
:1029C000C2F200031B685B68009340F6B400C2F2D9
:1029D0000000234604F036F940F2A063C2F200037F
:1029E0001B685B6F184606F027FC044640F2A063A4
:1029F000C2F200031B689B6F184606F01DFC0346DD
:102A000040F6B400C2F2000021461A4604F032F942
:102A100040F61820C2F2000004F0F8F840F2A0637B
:102A2000C2F200031B68D96840F2A063C2F200033F
:102A30001B681A6940F2A063C2F200031B685C695C
:102A400040F2A063C2F200031B685B68009340F68B
:102A50001820C2F20000234604F0F4F840F2A0630C
:102A6000C2F200031B68DB6F184606F0E5FB044664
:102A700040F2A063C2F200031B68D3F8803018460E
:102A800006F0DAFB034640F61820C2F200002146A9
:102A90001A4604F0EFF840F6D800C2F2000004F045
:102AA000B5F840F2A063C2F200031B68996940F2D6
:102AB000A063C2F200031B68DA6940F2A063C2F2AD
:102AC00000031B681C6A40F2A063C2F200031B688B
:102AD0009B68009340F6D800C2F20000234604F041
:102AE000B1F840F2A063C2F200031B68D3F884304F
:102AF000184606F0A1FB044640F2A063C2F20003B0
:102B00001B68D3F88830184606F096FB034640F65B
:102B1000D800C2F2000021461A4604F0ABF84FF08C
:102B20000003FB6404E000BFFB6C03F10103FB64E2
:102B3000FA6C4FF6FE73C0F203039A42F3DD01F024
:102B40001BFC01F0B1FB40F2A063C2F200031B6862
:102B5000DB6A40F67C00C2F20000194603F026FC56
:102B600040F20003C2F200031B68184602F000F9AD
:102B700040F67800C2F20000FDF706FD40F678004E
:102B8000C2F200004FF00301FDF7D8FD02F0CAFBCE
:102B90004FF03C004FF000014FF0300201F0FEFC1E
:102BA0004FF03C004FF001014FF0000201F0F6FC45
:102BB00004F09EF904F0D8F94FF00003BB6440F232
:102BC000B840C2F20000DFF87014DFF87024FDF79F
:102BD000DDFE02F0C5FD4CF22A50C5F2754002F050
:102BE0006BFD4FF0FF3002F071FE4FF064037B6429
:102BF0004FF000033B6402F0A7FC0346002B00F0FB
:102C000003814FF0000002F0FBFC034687F83B30E5
:102C100097F83B3003F06003002B40F00881BB6C59
:102C200003F10103BB6440F60020C2F200004FF044
:102C3000150102F00DFDBA6C7B6C9A4239DD4FF044
:102C40000003BB6440F67800C2F200004FF00101BF
:102C5000FDF7B8FD40F67800C2F200004FF0020127
:102C6000FDF7B0FD7B6C0D2B06D1BB6C002B03D1A7
:102C70004FF064037B641CE07B6C0C2B06D1BB6CB7
:102C8000002B03D14FF00D037B6412E07B6C0B2B08
:102C900006D1BB6C002B03D14FF00C037B6408E022
:102CA0007B6C642B05D1BB6C002B02D14FF00B0366
:102CB0007B644FF000033B6440F60023C2F2000344
:102CC0001B7A4FEA032240F60023C2F20003DB79AD
:102CD000D318A3F58663A3F105037B637B6B9BB2DB
:102CE0001A464FEA4202D3189AB27B6B4FEA63034B
:102CF0009BB2D3189BB29AB240F28C43C2F200034B
:102D00001A8040F60023C2F200039B7A4FEA0322A6
:102D100040F60023C2F200035B7AD3186FF027025B
:102D200002FB03F303F56E4303F1C0034CF60342C9
:102D3000C9F2AB0282FB0312D2184FEA22224FEAF9
:102D4000E373D31A184606F077FA024640F260435E
:102D5000C2F200031A6040F60023C2F200039B791E
:102D60004FEA032240F60023C2F200035B79D21837
:102D700013464FEA83039B184FEAC303A3F56A4344
:102D8000A3F5F87347F2ED32C4F6485282FB031202
:102D90004FEAE2124FEAE373D31A184606F04CFAF0
:102DA000024640F26443C2F200031A6040F6002378
:102DB000C2F200031B7B4FEA032240F60023C2F25B
:102DC0000003DB7AD3186FF0C70202FB03F303F5AD
:102DD000922303F5AE6346F21702C1F2F26282FB60
:102DE00003124FEA62124FEAE373D31A184606F051
:102DF00023FA024640F26843C2F200031A604FF021
:102E0000010002F063FD12E03B6C092B07DD40F28C
:102E10008C43C2F200034FF6FF721A8003E03B6C52
:102E200003F101033B644FF0020002F04FFD4FF04D
:102E30000003FB73DBE04FF000033B63FB7B40F2DE
:102E4000B460C2F20000194640F27872C2F2000289
:102E500003F0D2FC03463B633B6B002B00F0C780C2
:102E600040F67800C2F200004FF00401FDF7AAFC22
:102E700040F27873C2F200039B78452B40F0B78094
:102E800049F2C462C0F6000207F1040307CA03C393
:102E90001A7007F10403009340F6FC00C2F2000030
:102EA0004FF000014FF046024FF0080303F0BEFD63
:102EB0000346FB6240F27873C2F20003DB794FEA0B
:102EC000036240F27873C2F200039B794FEA034336
:102ED0001A4340F27873C2F200035B794FEA03238E
:102EE0001A4340F27873C2F200031B791343BB62AA
:102EF00040F27873C2F20003DB7A4FEA036240F2D9
:102F00007873C2F200039B7A4FEA03431A4340F2FC
:102F10007873C2F200035B7A4FEA03231A4340F24C
:102F20007873C2F200031B7A13437B6240F278731A
:102F3000C2F20003DB7B4FEA036240F27873C2F215
:102F400000039B7B4FEA03431A4340F27873C2F2BB
:102F500000035B7B4FEA03231A4340F27873C2F20B
:102F600000031B7B13433B62B86A06F065F9034616
:102F70001846334906F068FA0346FB61786A06F0A2
:102F80005BF9034618462E4906F05EFA0346BB611C
:102F9000386A06F051F903461846294906F054FAF2
:102FA00003467B61194B3B613B69009340F6B400DB
:102FB000C2F20000F969BA697B6903F043FE3B691C
:102FC000009340F61820C2F20000F969BA697B69E3
:102FD00003F038FE40F20003C2F200031B681846FB
:102FE00040F6FC01C2F20001FA6A01F089FF07F124
:102FF0000F0340F2E040C2F20000194602F0F6FD75
:103000000346002B7FF417AFF5E500BF0AD7A33BBB
:103010000E745A3C0000C040000030413333333F4F
:103020000000C8420000000000006040EC51383E43
:103030009A99993ECDCC4C3EC3F5A83E000048423B
:1030400000007A442DE9F04192B006AF40F67800D6
:10305000C2F200004FF00801FDF7B4FB4FF08040D2
:103060004FF0010104F08AFC0346002B00F0F784C6
:103070004FF080404FF0010104F0B0FC40F67C00BE
:10308000C2F2000003F0E4FA40F67C00C2F2000055
:1030900003F0CAF940F67C00C2F2000003F02EFBF8
:1030A00040F2A843C2F200031B6803F1010240F2A0
:1030B000A843C2F200031A6040F2A843C2F2000320
:1030C0001B68142B0ED140F2A843C2F200034FF04C
:1030D00000021A6040F67800C2F200004FF00101D1
:1030E000FDF770FB4FF03C004FF002014FF0010282
:1030F00001F054FA40F2A460C2F2000000F0AEFE0B
:10310000DFF86439FB62DFF86439BB6240F67C03A8
:10311000C2F200039B8B1BB2184606F08DF80346E3
:103120001846F96A06F0DCF803467B6240F67C0339
:10313000C2F20003DB8B1BB2184606F07DF8034693
:103140001846F96A06F0CCF803463B6240F67C0369
:10315000C2F200031B8C1BB2184606F06DF8034642
:103160001846F96A06F0BCF80346FB6140F67C039A
:10317000C2F200035B8C1BB2184606F05DF80346F2
:103180001846B96A06F0ACF80346BB6140F67C030A
:10319000C2F200039B8C1BB2184606F04DF80346A2
:1031A0001846B96A06F09CF803467B6140F67C033A
:1031B000C2F20003DB8C1BB2184606F03DF8034652
:1031C0001846B96A06F08CF803463B6140F2A463E6
:1031D000C2F200031B881AB24FF61A73CFF6FF73C0
:1031E0009B1A184606F028F80346FB6040F2A463D9
:1031F000C2F200035B881AB24FF69C73CFF6FF73DE
:103200009B1A184606F018F80346BB6040F2A46308
:10321000C2F200039B881BB203F16403184606F058
:103220000BF803467B60BB6900937B6901933B69A4
:103230000293FB680393BB6804937B68059340F299
:10324000B840C2F20000796A3A6AFB69FDF7C0FB38
:1032500040F20003C2F20003D3F8008040F2B8430A
:10326000C2F200035B681846DFF8041806F038F86D
:103270000346184606F0FAF9064640F2B843C2F291
:1032800000039B681846DFF8E81706F029F80346A4
:10329000184606F0EBF9054640F2B843C2F20003C7
:1032A000DB681846DFF8C81706F01AF80346184618
:1032B00006F0DCF9044640F2B843C2F200031B6991
:1032C0001846DFF8AC1706F00BF80346184606F070
:1032D000CDF9034600934FF0000301934FF0000334
:1032E0000293404631462A46234601F033FE40F21F
:1032F000B840C2F20000FFF70BF940F2A063C2F23F
:1033000000031B689B6ADFF86C07194605F0DEFEB8
:1033100003461C4640F67C03C2F20003DB8B1BB263
:10332000184605F089FF024640F6B403C2F20003D6
:103330001B6A1046194605F0D3FF03461A4640F2B1
:10334000A063C2F200031B685B6A1046194606F0D0
:103350007BF803461A4640F25443C2F200031B684E
:103360001046194605F0B4FE03462046194605F0FE
:10337000B7FF03461C4640F2A063C2F200031B687D
:103380009A6A40F67C03C2F200035B6B1046194652
:1033900005F0A6FF03462046194605F099FE0346B0
:1033A0001A4640F25443C2F200031A6040F2A0638E
:1033B000C2F200031B689B6ADFF8B806194605F0E5
:1033C00085FE03461C4640F67C03C2F200039B8B3D
:1033D0001BB2184605F030FF024640F61823C2F231
:1033E00000031B6A1046194605F07AFF03461A4689
:1033F00040F2A063C2F200031B685B6A10461946E4
:1034000006F022F803461A4640F25843C2F200037F
:103410001B681046194605F05BFE03462046194618
:1034200005F05EFF03461C4640F2A063C2F20003B3
:103430001B689A6A40F67C03C2F200031B6B1046BD
:10344000194605F04DFF03462046194605F040FE9B
:1034500003461A4640F25843C2F200031A6040F68F
:103460007C03C2F200031B8C1BB2184605F0E4FE7D
:10347000024640F26843C2F200031B681046194638
:1034800005F026FE03461A4640F2A063C2F200038E
:103490001B689B691046194605F022FF03461A4631
:1034A00040F25C43C2F200031A6040F25C43C2F295
:1034B00000031B684FF0010214461846DFF8B815E8
:1034C00006F0CAF80346002B02D14FF000031C4659
:1034D000E3B2002B06D040F25C43C2F20003DFF8F7
:1034E00098251A6040F25C43C2F200031B684FF05B
:1034F000010214461846DFF8841506F08FF80346DB
:10350000002B02D14FF000031C46E3B2002B06D083
:1035100040F25C43C2F20003DFF860251A604FF00E
:103520000000C4F202004FF4807101F083FB0346F7
:10353000002B00F08A8240F28C43C2F200031B8809
:103540001BB2002B40F3818240F67800C2F20000EB
:103550004FF00401FDF7AAF840F2A063C2F20003A5
:103560001B681B6BDFF80C05194605F0AFFD034621
:103570001A4640F6FC13C2F200031B6810461946B7
:1035800005F0AEFE03461C4640F2A063C2F2000303
:103590001B681D6B40F67C03C2F20003DB8B1BB281
:1035A000184605F049FE03462846194605F098FEE0
:1035B00003462046194605F08BFD03461A4640F6A1
:1035C000FC13C2F200031A6040F2A063C2F20003CF
:1035D0001B681B6BDFF89C04194605F077FD03465A
:1035E0001A4640F27473C2F200031B681046194673
:1035F00005F076FE03461C4640F2A063C2F20003CB
:103600001B681D6B40F67C03C2F200039B8B1BB250
:10361000184605F011FE03462846194605F060FEDF
:1036200003462046194605F053FD03461A4640F26C
:103630007473C2F200031A6040F26043C2F20003E6
:10364000196840F25443C2F200031A6840F6FC13B2
:10365000C2F200031B6840F6B400C2F2000003F09F
:103660008DFB40F26443C2F20003196840F25843F4
:10367000C2F200031A6840F27473C2F200031B68BE
:1036800040F61820C2F2000003F078FB40F26843D5
:10369000C2F200031D6840F2A463C2F20003DC68BA
:1036A00040F67C03C2F200031B8C1BB2184605F0E7
:1036B000C3FD034640F6D800C2F200002946224668
:1036C00003F05CFB40F28C43C2F200031B881BB288
:1036D000184605F0B1FD044640F6B400C2F2000001
:1036E00003F0FAFB03462046194605F0EFFC0346BB
:1036F0001C4640F61820C2F2000003F0EDFB034622
:103700002046194605F0E2FC03461A4640F25C43A7
:10371000C2F200031B681046194605F0D9FC0346A7
:10372000184605F0A3FF024640F26C43C2F20003C4
:103730001A6040F26C43C2F200031B681846FEF7A1
:10374000CDFF024640F26C43C2F200031A6040F221
:103750008C43C2F200031B881BB2184605F06CFDB7
:10376000044640F6B400C2F2000003F0B5FB034685
:103770002046194605F0ACFC03461C4640F61820CE
:10378000C2F2000003F0A8FB03462046194605F0EC
:103790009DFC03461A4640F25C43C2F200031B68DC
:1037A0001046194605F092FC0346184605F05EFFE8
:1037B000024640F27043C2F200031A6040F27043C6
:1037C000C2F200031B681846FEF788FF024640F26B
:1037D0007043C2F200031A6040F28C43C2F200034D
:1037E0001B881BB2184605F027FD044640F6B400BE
:1037F000C2F2000003F070FB03462046194605F0B4
:1038000067FC03461C4640F61820C2F2000003F095
:1038100063FB03462046194605F05AFC03461A4648
:1038200040F25C43C2F200031B681046194605F0E3
:103830004FFC0346184605F019FF024640F2744358
:10384000C2F200031A6040F27443C2F200031B6824
:103850001846FEF743FF024640F27443C2F20003EB
:103860001A6040F28C43C2F200031B881BB2184658
:1038700005F0E2FC044640F6B400C2F2000003F09A
:103880002BFB03462046194605F020FC03461C4648
:1038900040F61820C2F2000003F01EFB034620464B
:1038A000194605F015FC03461A4640F25C43C2F285
:1038B00000031B681046194605F008FC034618462D
:1038C00005F0D4FE024640F27843C2F200031A60CB
:1038D00040F27843C2F200031B681846FEF7FEFE72
:1038E000024640F27843C2F200031A6040F26C4391
:1038F000C2F200031A6840F6EF239A420EDD40F24E
:103900006C43C2F2000340F6EF221A6040F67800E2
:10391000C2F200004FF00401FCF710FF40F27043C8
:10392000C2F200031A6840F6EF239A420EDD40F21D
:103930007043C2F2000340F6EF221A6040F67800AE
:10394000C2F200004FF00401FCF7F8FE40F27443AD
:10395000C2F200031A6840F6EF239A420EDD40F2ED
:103960007443C2F2000340F6EF221A6040F678007A
:10397000C2F200004FF00401FCF7E0FE40F2784391
:10398000C2F200031A6840F6EF239A420EDD40F2BD
:103990007843C2F2000340F6EF221A6040F6780046
:1039A000C2F200004FF00401FCF7C8FE40F26C4385
:1039B000C2F200031B68002B06DA40F26C43C2F22D
:1039C00000034FF000021A6040F27043C2F200039D
:1039D0001B68002B06DA40F27043C2F200034FF07E
:1039E00000021A6040F27443C2F200031B68002B0D
:1039F00006DA40F27443C2F200034FF000021A608C
:103A000040F27843C2F200031B68002B06DA40F252
:103A10007843C2F200034FF000021A6040F26C4398
:103A2000C2F20003186840F27043C2F20003196842
:103A300040F27443C2F200031A6840F27843C2F2C3
:103A400000031B6801F01AFD09E04FF001004FF080
:103A500001014FF001024FF0010301F00FFD07F1EA
:103A60003007BD46BDE8F081D77A8B3ACDCC9C3A81
:103A700000007A440000803F00004843000048C333
:103A800080B582B000AF4FF49040C4F2000040F225
:103A90002551FCF7F5FC0346002B16D04FF490405F
:103AA000C4F2000040F22551FCF74CFD4FF4904366
:103AB000C4F200039B889BB2FB71FB7940F2E040AB
:103AC000C2F20000194602F069F807F10807BD4686
:103AD00080BD00BF80B489B000AF78604FF00003B4
:103AE000BB614FF000037B614FF00003FB614FF0BF
:103AF00002033B614FF00003FB604FF00203BB6029
:103B00004FF46053C4F202039B6803F00C03BB61E3
:103B1000BB69042B0AD0082B0FD0002B62D17A6826
:103B20004FF41053C0F2F403136062E07A684FF46C
:103B30001053C0F2F40313605BE04FF46053C4F21F
:103B400002035B6803F480034FEA9353FB604FF476
:103B50006053C4F202035B6803F03F03BB60FB6881
:103B6000002B15D04FF41053C0F2F403BA68B3FB26
:103B7000F2F24FF46053C4F202035B68194647F651
:103B8000C0730B404FEA931303FB02F3FB6114E095
:103B90004FF41053C0F2F403BA68B3FBF2F24FF4DF
:103BA0006053C4F202035B68194647F6C0730B40CA
:103BB0004FEA931303FB02F3FB614FF46053C4F22B
:103BC00002035B6803F440334FEA134303F101033C
:103BD0004FEA43033B61FA693B69B2FBF3F27B684E
:103BE0001A6006E07A684FF41053C0F2F4031360D1
:103BF00000BF4FF46053C4F202039B6803F0F0036C
:103C0000BB61BB694FEA1313BB6140F20403C2F20C
:103C10000003BA699B181B78DBB27B617B681A686A
:103C20007B6922FA03F27B685A604FF46053C4F256
:103C300002039B6803F4E053BB61BB694FEA932323
:103C4000BB6140F20403C2F20003BA699B181B78FF
:103C5000DBB27B617B685A687B6922FA03F27B687E
:103C60009A604FF46053C4F202039B6803F460430C
:103C7000BB61BB694FEA5333BB6140F20403C2F23C
:103C80000003BA699B181B78DBB27B617B685A68BA
:103C90007B6922FA03F27B68DA6007F12407BD46EC
:103CA00080BC704780B483B000AF78600B46FB7077
:103CB000FB78002B0DD04FF46053C4F202034FF495
:103CC0006052C4F20202126B11467A680A431A6308
:103CD0000EE04FF46053C4F202034FF46052C4F29A
:103CE0000202126B11467A686FEA02020A401A63F6
:103CF00007F10C07BD4680BC704700BF80B483B09D
:103D000000AF78600B46FB70FB78002B0DD04FF4B2
:103D10006053C4F202034FF46052C4F20202126C08
:103D200011467A680A431A640EE04FF46053C4F2F5
:103D300002034FF46052C4F20202126C11467A6818
:103D40006FEA02020A401A6407F10C07BD4680BC04
:103D5000704700BF80B483B000AF78600B46FB7043
:103D6000FB78002B0DD04FF46053C4F202034FF4E4
:103D70006052C4F20202526C11467A680A435A64D5
:103D80000EE04FF46053C4F202034FF46052C4F2E9
:103D90000202526C11467A686FEA02020A405A64C3
:103DA00007F10C07BD4680BC704700BF80B483B0EC
:103DB00000AF78600B46FB70FB78002B0DD04FF402
:103DC0006053C4F202034FF46052C4F20202126A5A
:103DD00011467A680A431A620EE04FF46053C4F247
:103DE00002034FF46052C4F20202126A11467A686A
:103DF0006FEA02020A401A6207F10C07BD4680BC56
:103E0000704700BF80B483B000AF78600B46FB7092
:103E1000FB78002B0DD04FF46053C4F202034FF433
:103E20006052C4F20202526A11467A680A435A6228
:103E30000EE04FF46053C4F202034FF46052C4F238
:103E40000202526A11467A686FEA02020A405A6216
:103E500007F10C07BD4680BC704700BF80B584B039
:103E600000AF78604FF03C004FF0030100F0C4FB5E
:103E70000346FB734FF03C004FF0040100F0BCFB25
:103E80000346BB734FF03C004FF0070100F0B4FB5A
:103E900003467B734FF03C004FF0080100F0ACFB91
:103EA00003463B734FF03C004FF0050100F0A4FBCC
:103EB0000346FB724FF03C004FF0060100F09CFB04
:103EC0000346BB72FB7B4FEA03239AB2BB7B9BB2D8
:103ED00013439BB29AB27B68DB889BB2D3189BB228
:103EE0009AB27B681A807B7B4FEA03239AB23B7BB2
:103EF0009BB213439BB29AB27B681B899BB2D318C7
:103F00009BB29AB27B685A80FB7A4FEA03239AB23B
:103F1000BB7A9BB213439BB29AB27B685B899BB21C
:103F2000D3189BB29AB27B689A8007F11007BD46FE
:103F300080BD00BF80B485B000AF786039604FF0BD
:103F40000003FB604FF00003FB727B685B68FB6063
:103F5000FB6823F0407323F48073FB603B681B799C
:103F60004FEA03223B681B681343FA681343FB6064
:103F70007B68FA685A607B689B68FB60FA684FF25E
:103F8000FD73CCF2FF031340FB603B681A693B688A
:103F9000DB681A433B689B681A433B685B794FEACE
:103FA00043031343FA681343FB607B68FA689A6023
:103FB0007B68DB6AFB60FB6823F47003FB603B6893
:103FC0001B7D03F1FF33DAB2FB7A1343FB72FB7AFA
:103FD0004FEA0353FA681343FB607B68FA68DA62BE
:103FE00007F11407BD4680BC704700BF80B485B0A0
:103FF00000AF78604FF00003FB604FF40C53C4F245
:1040000001035B68FB60FA6843F2E003CFF6FC73E0
:104010001340FB607B681A687B685B681A437B68A7
:104020009B681A437B68DB681343FA681343FB60A1
:104030004FF40C53C4F20103FA685A6007F11407F5
:10404000BD4680BC704700BF80B483B000AF7860CD
:104050000B46FB70FB78002B06D07B689B6843F017
:1040600001027B689A6005E07B689B6823F001028F
:104070007B689A6007F10C07BD4680BC704700BFA3
:1040800080B485B000AF7860F970BA707B704FF083
:104090000003FB604FF00003BB60FB78092B27D9BE
:1040A0007B68DB68FB60FA7813464FEA43039B1892
:1040B000A3F11E034FF0070202FA03F3BB60BB68D3
:1040C0006FEA0303FA681340FB607978FA781346C5
:1040D0004FEA43039B18A3F11E0301FA03F3BB60ED
:1040E000FA68BB681343FB607B68FA68DA6022E019
:1040F0007B681B69FB60FA7813464FEA43039B1801
:104100004FF0070202FA03F3BB60BB686FEA0303D8
:10411000FA681340FB607978FA7813464FEA430354
:104120009B1801FA03F3BB60FA68BB681343FB609A
:104130007B68FA681A61BB78062B27D87B685B6BB3
:10414000FB60BB7803F1FF3213464FEA83039B18F1
:104150004FF01F0202FA03F3BB60BB686FEA030370
:10416000FA681340FB60F978BB7803F1FF3213461D
:104170004FEA83039B1801FA03F3BB60FA68BB683C
:104180001343FB607B68FA685A6351E0BB780C2BE1
:1041900027D87B681B6BFB60BA7813464FEA830312
:1041A0009B18A3F123034FF01F0202FA03F3BB6035
:1041B000BB686FEA0303FA681340FB60F978BA78CA
:1041C00013464FEA83039B18A3F1230301FA03F379
:1041D000BB60FA68BB681343FB607B68FA681A63CC
:1041E00026E07B68DB6AFB60BA7813464FEA8303FC
:1041F0009B18A3F141034FF01F0202FA03F3BB60C7
:10420000BB686FEA0303FA681340FB60F978BA7879
:1042100013464FEA83039B18A3F1410301FA03F30A
:10422000BB60FA68BB681343FB607B68FA68DA62BC
:1042300007F11407BD4680BC704700BF80B485B04D
:1042400000AF786039607B68BB604FF00003FB60B3
:1042500009E0FB68BA68D3184FF000021A70FB68D7
:1042600003F10103FB60FA683B689A42F1DB07F156
:104270001407BD4680BC704780B582B000AF78603F
:10428000396078684FF07001FFF7D8FF3B68192B51
:1042900002DD4FF019033B607B683A689A6607F1CC
:1042A0000807BD4680BD00BF80B58CB000AF4FF0A1
:1042B00004004FF00101FFF7F5FC4FF480604FF070
:1042C0000101FFF747FD4FF003033B604FF003038D
:1042D0003B714FF00003FB713B464FF40060C4F2AA
:1042E0000200194600F0FCFB4FF00003BB604FF0EA
:1042F0000003FB604FF000033B614FF000037B6164
:1043000007F108031846FFF771FE4FF00003BB6189
:104310004FF000033B774FF000037B774FF0000333
:104320003B624FF000037B624FF00003BB624FF033
:10433000010387F82C3007F118034FF40850C4F23A
:1043400001001946FFF7F6FD4FF40850C4F20100D2
:104350004FF00B014FF001024FF00003FFF790FE0A
:104360004FF40850C4F201004FF00101FFF76CFE5A
:1043700007F13007BD4680BD80B586B000AF4FF471
:1043800000104FF00101FFF7B9FC4FF002004FF0B1
:104390000101FFF787FC4FF48060C4F202004FF088
:1043A00006014FF0040200F08DFC4FF48060C4F26F
:1043B00002004FF007014FF0040200F083FC4FF0C1
:1043C000C0033B614FF002033B754FF003037B7565
:1043D0004FF00103BB754FF00103FB7507F11003AC
:1043E0004FF48060C4F20200194600F079FB4FF4EC
:1043F000D453C0F206033B604FF00003BB804BF682
:10440000FF73FB804FF001033B814FF480637B819E
:104410004FF48043BB814FF4A840C4F200004FF03A
:10442000010101F0DDFC3B464FF4A840C4F200005E
:10443000194601F0FFFB0FE04FF4A840C4F2000062
:104440004FF0010101F06AFD4FF4A840C4F20000F2
:104450004FF0000101F062FD4FF4A840C4F20000EB
:104460004FF4003101F0D4FD0346002BE4D107F1F5
:104470001807BD4680BD00BF80B582B000AF786030
:1044800013460A46FA70BB7000BF78684FF40031DB
:1044900001F0BEFD0346002BF7D178684FF0010113
:1044A00001F0BEFC00BF78684FF00101C0F20301CB
:1044B00001F076FD0346002BF5D0FA78BB787868DA
:1044C00011461A4601F0ECFCBB78002B0BD100BF63
:1044D00078684FF08201C0F2070101F061FD0346E8
:1044E000002BF5D00DE0BB78012B0AD100BF786816
:1044F0004FF00201C0F2030101F052FD0346002B10
:10450000F5D007F10807BD4680BD00BF80B582B079
:1045100000AF78600B46FB70FB787868194601F0B5
:1045200021FD00BF78684FF08401C0F2070101F05F
:1045300037FD0346002BF5D007F10807BD4680BDC7
:1045400080B584B000AF786078684FF0000101F06A
:10455000C5FC00BF78684FF04001C0F2030101F0D4
:104560001FFD0346002BF5D0786801F00BFD0346D4
:10457000FB73FB7B184607F11007BD4680BD00BFEB
:1045800080B582B000AF786078684FF0010101F02B
:1045900067FC07F10807BD4680BD00BF80B582B04B
:1045A00000AF13460246FA710A46BA717B71FB7975
:1045B0004FF4A840C4F2000019464FF00002FFF784
:1045C0005BFFBB794FF4A840C4F200001946FFF727
:1045D0009DFF7B794FF4A840C4F200001946FFF715
:1045E00095FF4FF4A840C4F20000FFF7C9FF07F1A0
:1045F0000807BD4680BD00BF80B584B000AF02464D
:104600000B46FA71BB714FF00003FB73FB794FF45B
:10461000A840C4F2000019464FF00002FFF72CFF3B
:10462000BB794FF4A840C4F200001946FFF76EFFB3
:104630004FF4A840C4F20000FFF7A2FFFB794FF44B
:10464000A840C4F2000019464FF00102FFF714FF22
:104650004FF4A840C4F20000FFF772FF0346FB735B
:104660004FF4A840C4F20000FFF78AFFFB7B184616
:1046700007F11007BD4680BD80B582B000AF4FF096
:104680000003FB714FF40060C4F202004FF40051CC
:1046900000F00AFB4FF0D70001F0F6FC4FF0FF00EE
:1046A00001F0F2FC0346FB714FF40060C4F202001B
:1046B0004FF4005100F0EAFAFB79184607F10807B9
:1046C000BD4680BD80B584B000AF4FF00003FB60F5
:1046D0004FF00003BB604FF000037B604FF000031E
:1046E0003B604FF40060C4F202004FF4005100F050
:1046F000DBFA4FF09F0001F0C7FC4FF0FF0001F024
:10470000C3FC0346BB604FF0FF0001F0BDFC034655
:104710007B604FF0FF0001F0B7FC03463B604FF4B5
:104720000060C4F202004FF4005100F0AFFABB6821
:104730004FEA03427B684FEA03231A433B68134363
:10474000FB60FB68184607F11007BD4680BD00BF3F
:1047500080B582B000AF78600B46FB704FF400600C
:10476000C4F202004FF4005100F09EFAFB78012BD6
:1047700002D14FF0530301E04FF05503184601F00A
:1047800083FC7B684FEA1343DBB2184601F07CFCE4
:104790007B684FEA1323DBB2184601F075FC7B6897
:1047A000DBB2184601F070FC4FF40060C4F2020066
:1047B0004FF4005100F06AFA00F016F907F108070B
:1047C000BD4680BD80B586B000AFF860B960FA80A4
:1047D0007B71FB683B614FF40060C4F202004FF450
:1047E000005100F061FA7B79012B02D14FF0840374
:1047F00001E04FF08703184601F046FCBB684FEA22
:104800001343DBB2184601F03FFCBB684FEA1323A9
:10481000DBB2184601F038FCBB68DBB2184601F089
:1048200033FC4FF00003FB820AE0FB8A3A69D3189D
:104830001B78184601F028FCFB8A03F10103FB8278
:10484000FA8AFB889A42F0D34FF40060C4F2020067
:104850004FF4005100F01AFA07F11807BD4680BD69
:1048600080B582B000AF78600B46FB704FF40060FB
:10487000C4F202004FF4005100F016FAFB78012B4D
:1048800002D14FF0830301E04FF08603184601F098
:10489000FBFB7B684FEA1343DBB2184601F0F4FBE5
:1048A0007B684FEA1323DBB2184601F0EDFB7B680F
:1048B000DBB2184601F0E8FB4FF40060C4F20200DE
:1048C0004FF4005100F0E2F900F08EF807F108070C
:1048D000BD4680BD80B582B000AF78600B46FB70EE
:1048E0004FF40060C4F202004FF4005100F0DCF914
:1048F000FB78012B02D14FF0600301E04FF0610320
:10490000184601F0C1FB7B684FEA1343DBB218463F
:1049100001F0BAFB7B684FEA1323DBB2184601F0C3
:10492000B3FB7B68DBB2184601F0AEFB4FF40060CE
:10493000C4F202004FF4005100F0A8F900F054F85E
:10494000FFF79AFE034603F04003002B14BF002339
:104950000123184607F10807BD4680BD80B586B023
:1049600000AFF860B9601346FB8036E0B8684FF0DE
:104970000101FFF7EDFEBB689BB24FEAC3534FEA5C
:10498000D353BB82BB8AC3F50073FB82FA8AFB88D0
:104990009A4201D9FB88FB82FB8AF868B9681A46FB
:1049A0004FF00103FFF70EFFB8684FF00101FFF76A
:1049B00091FF0346002B04D1B8684FF00101FFF7C7
:1049C0004FFFFB8ABA68D318BB60FA88FB8AD31AF8
:1049D000FB80FB8AFA68D318FB60FB88002BC5D1EB
:1049E00007F11807BD4680BD80B500AF00E000BFED
:1049F000FFF742FE0346DBB25BB2002BF7DA80BD65
:104A000090B587B000AFF860B9601346FB80FB68D3
:104A10003B614FF40060C4F202004FF4005100F01B
:104A200043F94FF0030001F02FFBBB684FEA13433B
:104A3000DBB2184601F028FBBB684FEA1323DBB258
:104A4000184601F021FBBB68DBB2184601F01CFBE5
:104A50004FF00003FB820CE0FB8A3A69D4184FF058
:104A6000FF0001F011FB03462370FB8A03F10103F1
:104A7000FB82FA8AFB889A42EED34FF40060C4F2BC
:104A800002004FF4005100F001F907F11C07BD4688
:104A900090BD00BF80B500AF4FF40060C4F20200CB
:104AA0004FF4005100F000F94FF0C70001F0ECFAAC
:104AB0004FF0940001F0E8FA4FF0800001F0E4FAC2
:104AC0004FF09A0001F0E0FA4FF40060C4F20200E7
:104AD0004FF4005100F0DAF8FFF786FF80BD00BF09
:104AE00080B487B000AF786039604FF000037B611D
:104AF0004FF000033B614FF00003FB604FF00003F9
:104B00007B618EE07B694FF0010202FA03F33B61A7
:104B10003B681A683B691340FB60FA683B699A423C
:104B20007BD17B681B681A467B694FEA43034FF0D1
:104B3000030101FA03F36FEA03031A407B681A606A
:104B40007B681B681A463B681B7919467B694FEAEC
:104B5000430301FA03F31A437B681A603B681B792D
:104B6000012B03D03B681B79022B38D17B689B68F3
:104B70001A467B694FEA43034FF0030101FA03F33E
:104B80006FEA03031A407B689A607B689B681A4649
:104B90003B685B7919467B694FEA430301FA03F3EB
:104BA0001A437B689A607B685B681A467B699BB294
:104BB0004FF0010101FA03F36FEA03031A407B6827
:104BC0005A607B685B681A463B689B7919467B692B
:104BD0009BB201FA03F39BB21A437B685A607B686D
:104BE000DB681A467B699BB24FEA43034FF003012F
:104BF00001FA03F36FEA03031A407B68DA607B680B
:104C0000DB681A463B68DB7919467B694FEA430348
:104C100001FA03F31A437B68DA607B6903F101034D
:104C20007B617B690F2B7FF66DAF07F11C07BD46DB
:104C300080BC704780B485B000AF78600B467B8045
:104C40004FF00003FB737B681B691A467B88134097
:104C5000002B03D04FF00103FB7302E04FF0000381
:104C6000FB73FB7B184607F11407BD4680BC7047F9
:104C700080B483B000AF78607B681B699BB2184634
:104C800007F10C07BD4680BC704700BF80B483B0FD
:104C900000AF78600B467B807B687A881A8307F1C7
:104CA0000C07BD4680BC704780B483B000AF78600D
:104CB0000B467B807B687A885A8307F10C07BD46D8
:104CC00080BC704780B485B000AF786013460A4658
:104CD0007A807B704FF00003FB604FF00003BB60F5
:104CE0007A787B8803F007034FEA830302FA03F321
:104CF000FB607B884FEAD3039BB21A467B884FEA5E
:104D0000D3039BB219467B6801F1080153F82130A7
:104D100019467B8803F007034FEA83034FF00F0027
:104D200000FA03F36FEA030319407B6802F10802FB
:104D300043F822107B884FEAD3039BB21A467B6864
:104D400002F1080253F822301A46FB681343BB6095
:104D50007B884FEAD3039BB21A467B6802F10802B4
:104D6000B96843F8221007F11407BD4680BC7047AC
:104D700080B58AB000AF78604FF0000387F8263026
:104D80004FF0010387F827304FF0020387F82430F3
:104D90004FF0030387F825307A684FF48053C4F24C
:104DA00001039A423BD14FF001004FF00101FEF7A1
:104DB00079FF4FF010004FF00101FEF7CBFF4FF0ED
:104DC0000000C4F202004FF009014FF00702FFF7A4
:104DD00079FF4FF00000C4F202004FF00A014FF0DB
:104DE0000702FFF76FFF4FF400733B6207F12003E8
:104DF0004FF00000C4F202001946FFF771FE4FF4B5
:104E000080633B6207F120034FF00000C4F2020010
:104E10001946FFF765FE4FF025033B733AE04FF06C
:104E200004004FF00101FEF73DFF4FF480204FF0EA
:104E30000101FEF763FF4FF40060C4F202004FF07F
:104E40000A014FF00702FFF73DFF4FF40060C4F284
:104E500002004FF00B014FF00702FFF733FF4FF452
:104E600080633B6207F120034FF40060C4F202004C
:104E70001946FFF735FE4FF400633B6207F120034C
:104E80004FF40060C4F202001946FFF729FE4FF00C
:104E900027033B734FF4E1333B614FF00003BB82C8
:104EA0004FF00003FB824FF000033B834FF0000301
:104EB000BB834FF00C037B8307F11003786819461E
:104EC000FBF762F9786840F225514FF00102FBF7D9
:104ED00065FA4FF000037B734FF00003BB734FF094
:104EE0000103FB7307F10C03184601F0D7F978684A
:104EF0004FF00101FBF71EFA07F12807BD4680BD00
:104F000080B586B000AFF860B9607A60BB683B617D
:104F10004FF000037B6114E07B693A69D3181B787A
:104F2000F8681946FBF726FA00BFF8684FF0400111
:104F3000FBF786FA0346002BF7D07B6903F10103E8
:104F40007B617A697B689A42E6DB07F11807BD4608
:104F500080BD00BF80B58CB000AFF860B9607A60EA
:104F60003B60BB687B617B68BB613B68FB61BB6B83
:104F70003B62FB6B7B623B6CBB624FF00003FB62EE
:104F800027E0FB6A4FEA830307F13002D31853F896
:104F90001C3CF868194600F023F8FB6A052B05D184
:104FA000F8684FF00D01FBF7E5F906E0F8684FF0FF
:104FB0002C01FBF7DFF900E000BFF8684FF040017B
:104FC000FBF73EFA0346002BF6D0FB6A03F1010320
:104FD000FB62FB6A052BD4DD07F13007BD4680BDBF
:104FE00080B588B000AF786039604FF00103FB6195
:104FF0003B687B6110E07A6946F26763C6F26663DC
:1050000083FB02134FEAA3014FEAE273CB1A7B61E1
:10501000FB6903F10103FB617B6903F10903122BB7
:10502000E9D87B69002B06DAFB6903F10103FB6118
:105030004FF02D033B72FB69BB6107F10802BB69AE
:10504000D3184FF000021A703B687B6130E0BB69F7
:1050500003F1FF33BB617B6983EAE371A1EBE37189
:1050600046F26763C6F2666383FB01234FEAA3023D
:105070004FEAE173D21A13464FEA83039B184FEAB3
:105080004303CA1AD3B203F13003DAB207F10801BD
:10509000BB69CB181A707A6946F26763C6F2666319
:1050A00083FB02134FEAA3014FEAE273CB1A7B6141
:1050B0003B68002B02DBBB69002BC8D13B68002B8F
:1050C00002DABB69012BC2DC4FF00003BB6115E0C3
:1050D00007F10802BB69D3181B7878681946FBF7FB
:1050E00049F900BF78684FF04001FBF7A9F9034682
:1050F000002BF7D0BB6903F10103BB6107F1080284
:10510000BB69D3181B78002BE2D107F12007BD46FD
:1051100080BD00BF80B500AF4FF46053C4F20203FE
:105120004FF46052C4F20202126842F001021A60A7
:105130004FF46053C4F202034FF000029A604FF440
:105140006053C4F202034FF46052C4F202021268C8
:1051500022F0847222F480321A604FF46053C4F259
:10516000020343F21002C2F200425A604FF460534D
:10517000C4F202034FF46052C4F20202126822F435
:1051800080221A604FF46053C4F202034FF0000211
:10519000DA6000F009F84FF46D43CEF200034FF0EF
:1051A00000629A6080BD00BF80B483B000AF4FF052
:1051B00000037B604FF000033B604FF46053C4F288
:1051C00002034FF46052C4F20202126842F48032C9
:1051D0001A604FF46053C4F202031B6803F40033F7
:1051E0003B607B6803F101037B603B68002B03D1CC
:1051F0007B68B3F5A06FECD14FF46053C4F20203A7
:105200001B6803F40033002B03D04FF001033B6015
:1052100002E04FF000033B603B68012B7DD14FF46F
:105220006053C4F202034FF46052C4F20202126CE3
:1052300042F080521A644FF4E043C4F200034FF48A
:10524000E042C4F20002126842F480421A604FF455
:105250006053C4F202034FF46052C4F20202926837
:105260009A604FF46053C4F202034FF46052C4F2E8
:10527000020292689A604FF46053C4F202034FF442
:105280006052C4F2020292689A604FF46053C4F212
:10529000020346F61412C0F240725A604FF4605393
:1052A000C4F202034FF46052C4F20202126842F0E8
:1052B00080721A6000BF4FF46053C4F202031B688F
:1052C00003F00073002BF6D04FF47053C4F20203C6
:1052D00040F205621A604FF46053C4F202034FF4C7
:1052E0006052C4F20202926822F003029A604FF404
:1052F0006053C4F202034FF46052C4F20202926897
:1053000042F002029A6000BF4FF46053C4F20203FD
:105310009B6803F00C03082BF6D107F10C07BD4680
:1053200080BC704780B58AB000AF4FF004004FF0EA
:105330000101FEF7B7FC4FF002004FF00101FEF74C
:1053400009FD4FF40060C4F202004FF006014FF077
:105350000302FFF7B7FC4FF40060C4F202004FF005
:1053600007014FF00302FFF7ADFC4FF40060C4F2F9
:1053700002004FF008014FF00302FFF7A3FC4FF4C7
:105380000060C4F202004FF009014FF00302FFF782
:1053900099FC4FF470733B624FF0020387F824309E
:1053A0004FF0030387F825304FF0000387F82630CD
:1053B00007F120034FF40060C4F202001946FFF722
:1053C0008FFB40F6EF23BB614FF00103BB824FF030
:1053D0000003BB834FF00003FB8207F114034FF47B
:1053E0008060C4F20100194601F0FCFE4FF060033A
:1053F0003B804FF001037B804FF00A03BB604FF00E
:105400000003BB813B464FF48060C4F201001946A3
:1054100001F0A2FF3B464FF48060C4F20100194640
:1054200002F018F83B464FF48060C4F201001946C0
:1054300002F0A4F83B464FF48060C4F20100194624
:1054400002F02CF94FF48060C4F201004FF001012A
:1054500001F042FF4FF48060C4F201004FF00101FF
:1054600002F02EFA4FF48060C4F201004FF0010107
:1054700001F052FF07F12807BD4680BD80B58AB014
:1054800000AFF860B9607A603B6007F1140318461A
:1054900002F074F94FF06003BB824FF00103FB820E
:1054A0004FF000033B84FB68FB6107F114034FF4EA
:1054B0008060C4F20100194601F04EFF4FF4806095
:1054C000C4F201004FF0080102F082F9BB68FB61F1
:1054D00007F114034FF48060C4F20100194601F093
:1054E000B9FF4FF48060C4F201004FF0080102F0F0
:1054F0008BF97B68FB6107F114034FF48060C4F201
:105500000100194602F03AF84FF48060C4F201003D
:105510004FF0080102F098F93B68FB6107F11403B2
:105520004FF48060C4F20100194602F0B7F84FF45E
:105530008060C4F201004FF0080102F0A1F907F108
:105540002807BD4680BD00BF80B584B000AF48F2DB
:10555000A063C0F201033B604FF00003FB604FF01B
:105560000003BB604FF000037B600FE0BB68FB6093
:105570004FF44060C4F20200FFF77AFB034603F0E9
:105580000403BB607B6803F101037B60FB68002BB5
:1055900002D0BB68002B03D07A683B689A42E5DBF7
:1055A0007A683B689A42ACBF00230123184607F192
:1055B0001007BD4680BD00BF80B582B000AF024677
:1055C0000B46FA71BB714FF00000C4F202004FF4B9
:1055D0008051FFF769FBFB79184600F055FDBB7958
:1055E000184600F051FD4FF00000C4F202004FF4E5
:1055F0008051FFF74BFB07F10807BD4680BD00BF98
:1056000080B584B000AF0346FB714FF00000C4F2D8
:1056100002004FF48051FFF747FBFB7943F0400352
:10562000DBB2184600F030FD4FF0FF0000F02CFD1B
:105630000346FB734FF00000C4F202004FF48051A8
:10564000FFF724FBFB7B184607F11007BD4680BD22
:1056500090B585B000AF78600B46FB704FF000004E
:10566000C4F202004FF48051FFF71EFB4FF04500DB
:1056700000F00AFD4FF00003FB600CE0FB687A6865
:10568000D4184FF0FF0000F0FFFC03462370FB68C6
:1056900003F10103FB60FA78FB689A42EEDC4FF0FD
:1056A0000000C4F202004FF48051FFF7EFFA07F157
:1056B0001407BD4690BD00BF80B582B000AF7860D2
:1056C0004FF00000C4F202004FF48051FFF7ECFAF3
:1056D0004FF0060000F0D8FC7B684FEA1363DBB2A2
:1056E000184600F0D1FC7B684FEA1343DBB2184642
:1056F00000F0CAFC7B684FEA1323DBB2184600F0C7
:10570000C3FC7B68DBB2184600F0BEFC4FF0000023
:10571000C4F202004FF48051FFF7B8FA07F108070E
:10572000BD4680BD80B582B000AF0346FB714FF02F
:105730000000C4F202004FF48051FFF7B5FAFB7984
:10574000184600F0A1FC4FF00000C4F202004FF434
:105750008051FFF79BFA07F10807BD4680BD00BFE7
:1057600080B584B000AF4FF00000C4F202004FF4E7
:105770008051FFF78BFA4FF008004FF00101FEF760
:1057800091FA4FF004033B604FF000033B714FF080
:1057900003037B714FF00203FB713B464FF4406003
:1057A000C4F202001946FFF79BF94FF000004FF0DA
:1057B0000001FFF701FF4FF00003FB6004E000BFB2
:1057C000FB6803F10103FB60FA684FF6FE73C0F259
:1057D0003F039A42F3DD4FF00003BB6019E049F24A
:1057E000D063C0F60003BA689B181B78FF2B0CD05F
:1057F000BB68DAB249F2D063C0F60003B9685B183F
:105800001B7810461946FFF7D7FEBB6803F101036A
:10581000BB60BB68322BE2DD4FF002004FF00101AC
:10582000FFF7CAFE00E000BF4FF00200FFF7E8FEFE
:10583000034603F00103DBB2002BF4D14FF0240048
:105840004FF01301FFF7B8FE4FF026004FF03B0179
:10585000FFF7B2FE4FF00F004FF00001FFF7ACFE74
:105860004FF002004FF00201FFF7A6FE00E000BF7C
:105870004FF00200FFF7C4FE034603F00203002BC3
:10588000F5D14FF00F004FF0A001FFF795FE4FF05C
:1058900002004FF00201FFF78FFE00E000BF4FF063
:1058A0000200FFF7ADFE034603F00203002BF5D123
:1058B0004FF025004FF00801FFF77EFE4FF0A000EB
:1058C000FFF730FF07F11007BD4680BD80B582B0FD
:1058D00000AF78607B68B3F1FF3F07D140F2B4437B
:1058E000C2F200034FF000021A601EE040F2B4431F
:1058F000C2F200031A687B68D21840F2B443C2F2C5
:1059000000031A6040F2B443C2F200031B680F2B7D
:105910000BD940F2B443C2F200031B68A3F110029A
:1059200040F2B443C2F200031A604FF0A000FFF748
:10593000F9FE4FF0F000FFF7F5FE40F2B443C2F27B
:1059400000031A6840F21403C2F200039B5CA3F147
:105950000803DBB24FF00F001946FFF72DFE4FF0A2
:10596000C000FFF7DFFE07F10807BD4680BD00BF9E
:1059700080B582B000AF78607A684FF44053C4F2CB
:1059800001039A420CD14FF480504FF00101FEF711
:1059900039FA4FF480504FF00001FEF733FA26E059
:1059A0007A684FF46053C4F200039A420CD14FF46A
:1059B00080404FF00101FEF7F9F94FF480404FF0BD
:1059C0000001FEF7F3F912E07A684FF47053C4F265
:1059D00000039A420BD14FF400404FF00101FEF753
:1059E000E5F94FF400404FF00001FEF7DFF907F151
:1059F0000807BD4680BD00BF80B485B000AF7860A9
:105A000039604FF00003FB817B681B88FB81FB89B9
:105A100003F44153FB813B681A883B685B8813435E
:105A20009AB23B689B8813439AB23B68DB88134366
:105A30009AB23B681B8913439AB23B685B89134354
:105A40009AB23B689B8913439AB23B68DB89134344
:105A50009AB2FB891343FB817B68FA891A807B68C1
:105A60009B8B9BB223F400639AB27B689A833B685A
:105A70001A8A7B681A8207F11407BD4680BC7047FA
:105A800080B483B000AF78600B46FB70FB78002BCE
:105A900008D07B681B889BB243F040039AB27B68B6
:105AA0001A8007E07B681B889BB223F040039AB200
:105AB0007B681A8007F10C07BD4680BC704700BFA9
:105AC00080B483B000AF78607B689B899BB2184636
:105AD00007F10C07BD4680BC704700BF80B483B09F
